S013000054616E6B5F636F757273652E7372656393
S113000008250020590F0000550F00004509000085
S113001000000000000000000000000000000000DC
S1130020000000000000000000000000550F000068
S11300300000000000000000550F0000550F0000F4
S1130040550F0000550F0000550F0000550F00001C
S1130050B9040000550F0000550F0000550F0000B3
S1130060550F0000550F0000550F0000550F0000FC
S1130070550F0000550F0000550F0000250F00001C
S1130080350F0000450F0000550F0000550F00000C
S1130090550F0000550F0000550F0000550F0000CC
S11300A0550F0000550F0000550F0000550F0000BC
S11300B008B5064B064803331B1A062B00D808BDA7
S11300C0044B002BFBD09847F9E7C04638120000D8
S11300D0381200000000000008B50748074B1B1A3F
S11300E09B10DA0FD318591000D108BD044A002A16
S11300F0FBD09047F9E7C0463812000038120000E0
S11301000000000010B5074C2378002B09D1FFF73D
S1130110CFFF054B002B02D0044800E000BF0123B1
S1130120237010BD380400200000000038120000C5
S113013008B5094B002B03D00848094900E000BF6B
S113014008480368002B03D0074B002B00D09847C6
S1130150FFF7C2FF08BDC0460000000038120000CF
S11301603C040020381200000000000070B5AAB062
S113017001AC134E201C311C124B9847124B636088
S11301800323A372E37202232376104B63620122DA
S11301909E23E2542C23236705229023E2500C4D26
S11301A0281C311C221C0B4B98472A680221936897
S11301B01942FCD1116802230B4313602AB070BDAD
S11301C0002000429D0900001F4E0000DC050000D5
S11301D074040020E90A000096221201014BDA643B
S11301E07047C0460020004287229200014BDA6427
S11301F07047C0460020004208B5084B1B6ADA0766
S113020005D50122054B9A61054B984704E001226C
S1130210024B5A61034B984708BDC04680440041D5
S1130220E9010000D901000000B585B001A900234F
S11302304B6001220A724A728B72202301930323BA
S1130240CB720020014B984705B000BDF1030000BC
S113025008B5054800210022044B984700200021DE
S1130260034B984708BDC046F9010000690400002B
S11302709904000000B585B001A900234B60012258
S11302800A724A728B72212301930323CB720120D9
S1130290014B984705B000BDF103000008B50548BF
S11302A001210022044B984701200021034B984769
S11302B008BDC046F901000069040000990400006B
S11302C00C4B1B68002B10D1EFF31083002B09D1CA
S11302D072B6BFF35F8F0022074B1A700122074BDF
S11302E01A7002E00022054B1A70024B1A680132A0
S11302F01A607047540400200000002058040020B5
S1130300084B1A68013A1A601B68002B09D1064B86
S11303101B78002B05D00122044B1A70BFF35F8FAA
S113032062B67047540400205804002000000020E6
S1130330F0B583B001AC012565700027A770257066
S11303403E20211C064EB0478022D205054B9A61FF
S1130350277065700F20211CB04703B0F0BDC04664
S11303602505000080440041054B1A68D2B20221E1
S11303700A431A701A1C13681904FCD47047C04647
S11303800018004000B583B0124B996940220A431B
S11303909A6101A900230B7005200F4B9847052093
S11303A00E4B98470E4B1A68D2B201210A431A70B9
S11303B01A1C13681904FCD40A4B191C403100227E
S11303C004C38B42FCD11022074B1A60074B984799
S11303D003B000BD000400406D080000DD0700000C
S11303E000180040B404002000E100E069030000AC
S11303F0F0B583B0051C0C1C01A900234B70CB7015
S113040063680B70237A8B702078154B9847002310
S11304101F2D00D8134B072129408900E07AA27AC6
S1130420002A01D008221043EA0892009A1896691B
S113043088400F278F40BE43311C01439161627A8B
S1130440002A06D05A690121A9400D1C15435D619B
S113045004E05A690121A9408A435A6103B0F0BDFE
S113046015090000001800401723002A0FD18B0043
S1130470084A9A58002A04D1191C064BC850002374
S113048005E01D23121A501E824152421340181CCB
S11304907047C046B40400201723002907D1002365
S11304A01F2800D8034B01228240DA600023181C65
S11304B07047C0460018004070B50022164B1A70F1
S11304C000231F26154D144C1F2B10D919E0144975
S11304D000E000210A619B005B59002B00D0984783
S11304E023780133DBB223700F2B14D8ECE7321CD2
S11304F01A40012191400A1C094909691142E6D1B7
S1130500EEE7321C1A40012191400A1C00210969BE
S11305101142DED1E4E770BDF4040020B4040020ED
S11305200018004000B583B001AB80221A700A782D
S11305305A704A789A708A78DA70191C014B984775
S113054003B000BD1509000070B50C4B1C6A01789E
S1130550857840780122104080014026B44304434A
S11305602A40D00180229443221C024303200140EC
S11305700902034802400A431A6270BD00080040A1
S1130580FFFCFFFF082846D88000244B1B589F46D9
S1130590002041E0224B196A02220A431A62002019
S11305A03AE01F4B996902220A439A61002033E022
S11305B01B4B1A6992B202210A431A8200202BE0D3
S11305C0174B5A6992B202210A439A82002023E00F
S11305D0144B196802220A431A601A68124B1A4013
S11305E00F4B9A84191C1022CB681A42FCD00D4A76
S11305F091680B4BD96251689962126892B29A84DD
S1130600002009E0064B596CC9B20222114344226E
S11306109954002000E017207047C0469411000050
S1130620000800405C0400207FFF0000F0B547464E
S113063080B484B0C222D2001B4B9A601B4B5A6810
S11306401E218A435A6003A8002444700125857042
S11306500470174B98470620164B9847164B98473B
S113066001956A46547006239846137014725472A6
S113067003206946114FB8470320114EB047114B70
S11306801C725C729C7201956A46547043461370E6
S11306901472547200206946B8470020B04704B071
S11306A004BC9046F0BDC046000800400040004134
S11306B04905000085050000C9060000ED0600009C
S11306C09D07000000040040064B996908220A4374
S11306D09A610122044B1A70191C0B681342FCD155
S11306E07047C04600040040000C0040F8B5061CEA
S11306F0071C0D782D0205434B78002B02D0802374
S1130700DB021D434B7A002B02D080231B031D43C5
S11307104C68012C17D9631E1C420FD1022C06D938
S11307200223002201325B009C42FBD800E000223D
S11307301702374380235B031D4304E0270237433A
S113074080239B021D430B7A002B02D080239B0342
S11307501D430E4A13681904FCD40D4B98470D4BE6
S11307601E700A490B681A04FCD4084B9F601A1CBB
S113077013681904FCD4054B5968802252020A40BC
S113078015435D60044B9847F8BDC046000C00401B
S1130790C1020000080C00400103000010B5041C55
S11307A00A4A13681904FCD4094B9847094B1C7076
S11307B0064A13681904FCD4044B59688022520277
S11307C00A435A60044B984710BDC046000C0040D1
S11307D0C1020000040C00400103000010B5041C19
S11307E0064B9847064B1C70064B1968090C80226F
S11307F0D2010A435A80044B984710BDC10200003D
S1130800020C0040000C00400103000010B5041C61
S1130810104B9847104B1C70104B18680001000FC8
S113082059880F4A0A405A801A68120C0D490A4026
S11308305A80191C8022D2010B681B0C1342FBD175
S1130840064B01025888064A02400A435A80064B66
S1130850984710BDC1020000020C0040000C00408B
S1130860FFF0FFFFFFBFFFFF0103000010B50C788E
S113087024020443024B9847A4B2024B5C8010BD8F
S11308800D080000000C004030B5D4780023002C83
S11308901ED11378802B04D01B06802464022343CA
S11308A000E0002354780225AC430AD19478002C4C
S11308B003D18024A402234302E0C024E40223439E
S11308C041605478013CE4B2012C01D8104C23401F
S11308D00D042D0CA024E4052C431C4384620D0C50
S11308E0D02424062C431C438462D478002C0DD1DC
S11308F05C0305D59378012B01D1816100E041614E
S11309005378013BDBB2012B00D8816030BDC04677
S1130910FFFFFBFF08B5031C0A1CC10900200029C6
S113092003D15809C001044940181F210B4001217B
S11309309940024B984708BD0044004189080000D3
S11309407047C046FEE7C04608B5044B9847044BC1
S11309509847044B9847044B984708BD2D06000060
S1130960310300004109000085030000031C084A0C
S113097090420AD0074A904205D00020064A93428A
S113098005D1022002E0012000E00020C0B270473F
S113099000200042002400420028004210B5041C3C
S11309A0081C4F4B98470023236080004D4A805811
S11309B06060A372E372237363722372E361236240
S11309C06362A36223756375A375E3752376637607
S11309D023746374A374E3742C22A3542D22A354AC
S11309E02E22A3542F22A3543022A3543122A354E1
S11309F03222A3543322A3543422A3543522A354C1
S1130A003622A3543722A3543822A3543922A354A0
S1130A103A22A3543B22A3543C22A3543D22A35480
S1130A203E22A3543F22A3544022A3544122A35460
S1130A304222A3544322A3544422A3544522A35440
S1130A404622A3544722A3544822A3544922A35420
S1130A504A22A3544B22A3544C22A3544D22A35400
S1130A604E22A3544F22A3545022A3545122A354E0
S1130A705222A3545322A3545422A3545522A354C0
S1130A805622A3545722A3549822A354A365A367C0
S1130A909922A354E365E3679A22A3542366802230
S1130AA0A3509B22A35463668422A3509C22A35484
S1130AB0A3668822A3509D22A354E3668C22A350EC
S1130AC09E22A35423679022A3509F22A3546367BA
S1130AD09422A3500121A022A154A122A35410BD09
S1130AE06D090000C8110000F0B55F4656464D463A
S1130AF04446F0B48FB080460C1C161C081CDA4B1C
S1130B009847051C071CD94B196A8000D84A82589B
S1130B100A431A6223681C20990700D5D7E1236889
S1130B20DA0700D5D3E1AB00D24A9B5817203168CD
S1130B308B4200D2CBE17268934200D2C7E1F069E4
S1130B40834200D2ACE1316A8B4200D2AAE1726ADC
S1130B50934200D2A8E1B06A834200D2A6E1002306
S1130B60C549F21898321278002A03D0CA5D9A4215
S1130B7000DC9DE10133082BF3D100218B460023D7
S1130B80802149048C465846F218127C012A07D168
S1130B90BA49CA5D9A4200DA8CE162469A4010432F
S1130BA00133042BF0D18346A123F35C002B04D042
S1130BB080231B01021C1A439346337B0793F07A6C
S1130BC00890337A5A1E93419B000593737A012B44
S1130BD002D1059919430591A84B5B5D0493352314
S1130BE0F25C049B934200D870E12C23F15C0F2942
S1130BF000D96BE1331C2C33301C363003900CA825
S1130C0081460DA802904846BC465F460997A14616
S1130C10B246AB460DE0039B5A7A0499914200D840
S1130C2054E119781C1C0A34039404300F2900D9A8
S1130C304CE10D06F0273F053D405C7824049F7885
S1130C40791E8F41FF010197D9784E1EB141C90029
S1130C501E79771EBE4136019202C0273F013A40F9
S1130C6015435A7903273A4015432C439A79520184
S1130C7060252A401443DA791202C027BF003A40A3
S1130C8014431A7A1203E023DB011A402243019F22
S1130C90174339430E430660029CA042BBD167460A
S1130CA04C4656465D4609988346734B585D5246FA
S1130CB04132002189460023802149028C460121CA
S1130CC08A46211C041C48468946F118503109788B
S1130CD0002905D09C4200D8EEE0614699400843C3
S1130CE0117800290CD09C4200D8E7E0022904D1F5
S1130CF00221FF319940084302E0514699400843DC
S1130D0001330232082BE0D14C4681465B4B5B5DDC
S1130D100493737E1B0130221A40337E07210B405B
S1130D201A4303920023311C103180204002844670
S1130D30CA181279002A08D0049A9A4200DCBFE04B
S1130D4062469A400398104303900133042BEFD179
S1130D500023191C4046C21851600433302BFAD1C9
S1130D60002343638363AA00454BD0500460A0234F
S1130D70F25C3C23C2540BA9B37A0B70414B5B5D0C
S1130D809846181C404B98474046404B98473A4B6E
S1130D905B5D002B27DD782189190025364A9246B0
S1130DA0231C0C1C9846731998331B78002B13D002
S1130DB001232A206844037000222B2169440A700D
S1130DC020680AAA1070292169440B70231C203B57
S1130DD01878111C2E4A9047013504345046C35DDF
S1130DE0AB42E0DC4446089D2A02079F3B031343C1
S1130DF05846034323600422A3681A42FCD1FF230C
S1130E0023710422A3681A42FCD1059D65710C9FCD
S1130E10E7600D9820614946A1611E4AA368134208
S1130E20FCD1039DE5631022A3681A42FCD1376804
S1130E306763194AA3681342FCD17068206404985C
S1130E4000283FDD1C360021144D2A1C8A40A3686B
S1130E501342FCD104CE0B1C10339B00E3185A60E0
S1130E6001318842F1DC2FE06D09000000040040EC
S1130E70BC110000C8110000D8110000D4110000FA
S1130E80F8040020B81100006D080000DD07000020
S1130E901509000040000200800004000001080061
S1130EA0172014E0172012E0172010E017200EE09E
S1130EB017200CE017200AE0172008E0172006E0AE
S1130EC0172004E0002002E0002000E017200FB00B
S1130ED03CBC90469946A246AB46F0BDF0B54746A9
S1130EE080B480000D4BC6583368DB6A726B1340C4
S1130EF0B26B1A4090460024094FE55943462B42F1
S1130F0005D033195B68301C98473368DD620434BC
S1130F10302CF2D104BC9046F0BDC046F804002049
S1130F20DC11000008B50020014B984708BDC046FD
S1130F30DD0E000008B50120014B984708BDC046EE
S1130F40DD0E000008B50220014B984708BDC046DD
S1130F50DD0E0000FEE7C04610B5194B194A9A424F
S1130F6003D0194B164A9A4204D3184B184A9A4292
S1130F7010D31BE0174B14480330C01A800801300B
S1130F80800000230E490F4AD458CC5004338342C6
S1130F90FAD1EAE70E4B1A1D0C490331891A890864
S1130FA089005218002102C39342FCD10A4B7F21CD
S1130FB00A4A8A439A600A4B98470A4B9847FEE7C5
S1130FC0000000203812000038040020040500202E
S1130FD0380400200400002000ED00E000000000C0
S1130FE095100000E90F000070B5124B9847124BA2
S1130FF09847124B9847124B9847124B9847124BFD
S113100098470122114B1A70BFF35F8F62B6104BE1
S11310109847104C251C80350F4E236A1A0404D4BB
S11310208023DB056B61B047F7E78023DB05AB6109
S1131030F3E7C046490900006D01000029020000E1
S113104051020000750200009D0200000000002013
S1131050D901000000440041E901000008B5011C69
S11310600020021C031C00F03BF808BD38B5074BF8
S1131070074C1D1CE41AA410002C04D0013CA3004E
S1131080EB589847F8E700F0CFF838BD3412000069
S11310903812000070B50E4B0E4D0024ED1AAD1041
S11310A01E1CAC4204D0A300F35898470134F8E75F
S11310B000F0B0F8084B094D0024ED1AAD101E1CC9
S11310C0AC4204D0A300F35898470134F8E770BD4C
S11310D0201200002012000020120000281200003C
S11310E0F7B51E1C234B051C1B6801911C1CFC340A
S11310F0E06C171C002803D1A62252009818E06463
S113110043681F2B16DD1C4B002B02D101204042EB
S11311102EE0C820400000E000BF0028F6D0E26CBA
S113112000230260C42252004360E0648350C6225C
S1131130520083504368002D13D09C000419221CD4
S113114088321760C2277F00C2195768012199406D
S11311500F43FC345760E660022D02D194682143AA
S113116091605A1C019F02339B0042601F50002073
S1131170FEBDC0460C1200000000000008B5034B81
S1131180002B02D00248FFF769FF08BD00000000F1
S11311906D100000B00500001606000016060000E1
S11311A090050000A2050000C005000094050000A1
S11311B0D0050000040600001A1A1B0000010000FC
S11311C00002000000040000FFFFFF00FFFFFF001B
S11311D0FFFF0000040202000804020001000000F6
S11311E002000000040000000800000000100000DD
S11311F0002000000040000000800000000001000A
S1131200000002000000040000000800100000209C
S113121043000000F8B5C046F8BC08BC9E467047C1
S11312207D11000031010000F8B5C046F8BC08BCCF
S10B12309E4670470501000011
S11312380100000000000000100000200000000071
S113124800000000FC02002064030020CC030020FE
S11312580000000000000000000000000000000082
S11312680000000000000000000000000000000072
S11312780000000010120000000000000000000040
S11312880000000000000000000000000000000052
S11312980000000000000000000000000000000042
S11312A80000000000000000000000000000000032
S11312B80000000000000000000000000000000022
S11312C80000000000000000000000000000000012
S11312D80000000000000000000000000000000002
S11312E800000000000000000100000000000000F1
S11312F80E33CDAB34126DE6ECDE05000B000000B6
S113130800000000000000000000000000000000D1
S113131800000000000000000000000000000000C1
S113132800000000000000000000000000000000B1
S113133800000000000000000000000000000000A1
S9030F5994
